:020000040800F2
:1000000000500020C1230008192300081B2300080A
:100010001D2300081F230008212300080000000002
:100020000000000000000000000000002323000882
:1000300025230008000000002723000829230008CA
:1000400009240008092400080924000809240008DC
:1000500009240008092400080924000809240008CC
:1000600009240008092400080924000809240008BC
:1000700009240008092400080924000809240008AC
:100080003523000845230008092400080924000836
:10009000092400080924000809240008092400088C
:1000A000092400080924000809240008092400087C
:1000B000092400080924000809240008092400086C
:1000C000092400080924000809240008092400085C
:1000D00009240008552300086523000809240008A6
:1000E0000924000809240008092400080000000071
:1000F0000000000000000000000000000000000000
:0C01000000000000000000005FF808F1A3
:1001100010B5054C237833B9044B13B10448AFF341
:1001200000800123237010BDDC01002000000000CE
:10013000B43E000808B5034B1BB103490348AFF3B5
:10014000008008BD00000000E0010020B43E00086F
:1001500081F0004102E000BF83F0004330B54FEA78
:1001600041044FEA430594EA050F08BF90EA020FE5
:100170001FBF54EA000C55EA020C7FEA645C7FEA78
:10018000655C00F0E2804FEA5454D4EB5555B8BF9B
:100190006D420CDD2C4480EA020281EA030382EA0C
:1001A000000083EA010180EA020281EA0303362D9E
:1001B00088BF30BD11F0004F4FEA01314FF4801C71
:1001C0004CEA113102D0404261EB410113F0004F83
:1001D0004FEA03334CEA133302D0524263EB43033A
:1001E00094EA050F00F0A780A4F10104D5F1200ED8
:1001F0000DDB02FA0EFC22FA05F2801841F1000133
:1002000003FA0EF2801843FA05F359410EE0A5F106
:1002100020050EF1200E012A03FA0EFC28BF4CF037
:10022000020C43FA05F3C01851EBE37101F00045ED
:1002300007D54FF0000EDCF1000C7EEB00006EEBFA
:100240000101B1F5801F1BD3B1F5001F0CD3490884
:100250005FEA30004FEA3C0C04F101044FEA4452DB
:1002600012F5800F80F09A80BCF1004F08BF5FEA62
:10027000500C50F1000041EB045141EA050130BD42
:100280005FEA4C0C404141EB010111F4801FA4F1E5
:100290000104E9D191F0000F04BF01460020B1FA3A
:1002A00081F308BF2033A3F10B03B3F120020CDA72
:1002B0000C3208DD02F1140CC2F10C0201FA0CF050
:1002C00021FA02F10CE002F11402D8BFC2F1200CB5
:1002D00001FA02F120FA0CFCDCBF41EA0C0190406B
:1002E000E41AA2BF01EB0451294330BD6FEA0404B4
:1002F0001F3C1CDA0C340EDC04F11404C4F120029F
:1003000020FA04F001FA02F340EA030021FA04F3B0
:1003100045EA030130BDC4F10C04C4F1200220FA07
:1003200002F001FA04F340EA0300294630BD21FA45
:1003300004F0294630BD94F0000F83F4801306BF0B
:1003400081F480110134013D4EE77FEA645C18BFFF
:100350007FEA655C29D094EA050F08BF90EA020F96
:1003600005D054EA000C04BF1946104630BD91EA8E
:10037000030F1EBF0021002030BD5FEA545C05D191
:100380004000494128BF41F0004130BD14F58004D0
:100390003CBF01F5801130BD01F0004545F0FE4144
:1003A00041F470014FF0000030BD7FEA645C1ABF79
:1003B000194610467FEA655C1CBF0B46024650EAB0
:1003C000013406BF52EA033591EA030F41F40021DC
:1003D00030BD00BF90F0000F04BF0021704730B562
:1003E0004FF4806404F132044FF000054FF0000137
:1003F00050E700BF90F0000F04BF0021704730B5F8
:100400004FF4806404F1320410F0004548BF4042CC
:100410004FF000013EE700BF42004FEAE2014FEA21
:1004200031014FEA02701FBF12F07F4393F07F4FFC
:1004300081F06051704732F07F4208BF704793F0FF
:100440007F4F04BF41F40021704730B54FF4607412
:1004500001F0004521F000411CE700BF50EA010215
:1004600008BF704730B54FF000050AE050EA0102BE
:1004700008BF704730B511F0004502D5404261EB2E
:1004800041014FF4806404F132045FEA915C3FF46F
:10049000D8AE4FF003025FEADC0C18BF03325FEA0C
:1004A000DC0C18BF033202EBDC02C2F1200300FABD
:1004B00003FC20FA02F001FA03FE40EA0E0021FAE2
:1004C00002F11444BDE600BF70B54FF0FF0C4CF4D0
:1004D000E06C1CEA11541DBF1CEA135594EA0C0F82
:1004E00095EA0C0F00F0DEF82C4481EA030621EABD
:1004F0004C5123EA4C5350EA013518BF52EA0335F8
:1005000041F4801143F4801338D0A0FB02CE4FF0A9
:100510000005E1FB02E506F00042E0FB03E54FF0D9
:100520000006E1FB03569CF0000F18BF4EF0010ED1
:10053000A4F1FF04B6F5007F64F5407404D25FEACD
:100540004E0E6D4146EB060642EAC62141EA555180
:100550004FEAC52040EA5E504FEACE2EB4F1FD0CC2
:1005600088BFBCF5E06F1ED8BEF1004F08BF5FEA40
:10057000500E50F1000041EB045170BD06F00046F2
:1005800046EA010140EA020081EA0301B4EB5C049F
:10059000C2BFD4EB0C0541EA045170BD41F4801197
:1005A0004FF0000E013C00F3AB8014F1360FDEBFBC
:1005B000002001F0004170BDC4F10004203C35DA98
:1005C0000C341BDC04F11404C4F1200500FA05F31B
:1005D00020FA04F001FA05F240EA020001F00042BC
:1005E00021F0004110EBD37021FA04F642EB060132
:1005F0005EEA430E08BF20EAD37070BDC4F10C045C
:10060000C4F1200500FA04F320FA05F001FA04F21F
:1006100040EA020001F0004110EBD37041F100010B
:100620005EEA430E08BF20EAD37070BDC4F1200516
:1006300000FA05F24EEA020E20FA04F301FA05F27E
:1006400043EA020321FA04F001F0004121FA04F226
:1006500020EA020000EBD3705EEA430E08BF20EAF6
:10066000D37070BD94F0000F0FD101F00046400030
:1006700041EB010111F4801F08BF013CF7D041EAB2
:10068000060195F0000F18BF704703F000465200B6
:1006900043EB030313F4801F08BF013DF7D043EA87
:1006A0000603704794EA0C0F0CEA135518BF95EA3D
:1006B0000C0F0CD050EA410618BF52EA4306D1D1C4
:1006C00081EA030101F000414FF0000070BD50EAE3
:1006D000410606BF1046194652EA430619D094EA6D
:1006E0000C0F02D150EA013613D195EA0C0F05D157
:1006F00052EA03361CBF104619460AD181EA0301AB
:1007000001F0004141F0FE4141F470014FF0000062
:1007100070BD41F0FE4141F4780170BD70B54FF0FD
:10072000FF0C4CF4E06C1CEA11541DBF1CEA13557D
:1007300094EA0C0F95EA0C0F00F0A7F8A4EB05045F
:1007400081EA030E52EA03354FEA013100F0888056
:100750004FEA03334FF0805545EA131343EA12631F
:100760004FEA022245EA111545EA10654FEA0026D4
:100770000EF000419D4208BF964244F1FD0404F58D
:10078000407402D25B084FEA3202B61A65EB0305E9
:100790005B084FEA32024FF480104FF4002CB6EBA6
:1007A000020E75EB030E22BFB61A754640EA0C0026
:1007B0005B084FEA3202B6EB020E75EB030E22BF66
:1007C000B61A754640EA5C005B084FEA3202B6EBA7
:1007D000020E75EB030E22BFB61A754640EA9C0066
:1007E0005B084FEA3202B6EB020E75EB030E22BF36
:1007F000B61A754640EADC0055EA060E18D04FEAF4
:10080000051545EA16754FEA06164FEAC30343EA93
:1008100052734FEAC2025FEA1C1CC0D111F4801F60
:100820000BD141EA00014FF000004FF0004CB6E759
:1008300011F4801F04BF01430020B4F1FD0C88BFF8
:10084000BCF5E06F3FF6AFAEB5EB030C04BFB6EB03
:10085000020C5FEA500C50F1000041EB045170BDF6
:100860000EF0004E4EEA113114EB5C04C2BFD4EB23
:100870000C0541EA045170BD41F480114FF0000EA7
:10088000013C90E645EA060E8DE60CEA135594EA23
:100890000C0F08BF95EA0C0F3FF43BAF94EA0C0F26
:1008A0000AD150EA01347FF434AF95EA0C0F7FF49B
:1008B00025AF104619462CE795EA0C0F06D152EAEF
:1008C00003353FF4FDAE1046194622E750EA4106D3
:1008D00018BF52EA43067FF4C5AE50EA41047FF4E4
:1008E0000DAF52EA43057FF4EBAE12E7034613F86F
:1008F000012B002AFBD1181A013870474FF0FF3C3A
:1009000006E000BF4FF0010C02E000BF4FF0010C09
:100910004DF804CD4FEA410C7FEA6C5C4FEA430C82
:1009200018BF7FEA6C5C1BD001B050EA410C0CBFD1
:1009300052EA430C91EA030F02BF90EA020F002033
:10094000704710F1000F91EA030F58BF994208BF9A
:1009500090422CBFD8176FEAE37040F00100704757
:100960004FEA410C7FEA6C5C02D150EA013C07D1AE
:100970004FEA430C7FEA6C5CD6D152EA033CD3D0F9
:100980005DF8040B704700BF8446104662468C46F3
:100990001946634600E000BF01B5FFF7B7FF002826
:1009A00048BF10F1000F01BD4DF808EDFFF7F4FF4F
:1009B0000CBF012000205DF808FB00BF4DF808EDDA
:1009C000FFF7EAFF34BF012000205DF808FB00BFFD
:1009D0004DF808EDFFF7E0FF94BF012000205DF81F
:1009E00008FB00BF4DF808EDFFF7CEFF94BF0120D4
:1009F00000205DF808FB00BF4DF808EDFFF7C4FFCD
:100A000034BF012000205DF808FB00BF4FEA410C15
:100A10007FEA6C5C02D150EA013C0AD14FEA430CF8
:100A20007FEA6C5C02D152EA033C02D14FF0000035
:100A300070474FF0010070474FEA410212F5001273
:100A400015D211D56FF47873B3EB625212D94FEA15
:100A5000C12343F0004343EA505311F0004F23FAFF
:100A600002F018BF404270474FF00000704750EA54
:100A7000013005D111F0004008BF6FF00040704711
:100A80004FF00000704700BF10B504460E4B1878B9
:100A90004FF47A73B3FBF0F30C4A1068B0FBF3F039
:100AA00000F0A0F868B90F2C01D901200AE000225B
:100AB00021464FF0FF3000F055F8034B5C600020FA
:100AC00000E0012010BD00BF000000200800002051
:100AD00008B5074A136843F010031360032000F0C1
:100AE0002FF80020FFF7D0FF01F028FB002008BD01
:100AF00000200240034A1168034B1B780B4413602B
:100B0000704700BF0802002000000020014B186859
:100B1000704700BF0802002038B50446FFF7F6FF13
:100B20000546B4F1FF3F02D0044B1B781C44FFF78D
:100B3000EDFF401BA042FAD338BD00BF00000020EB
:100B4000074AD36823F4E0631B041B0C000200F483
:100B5000E060184340F0BF6040F40030D060704760
:100B600000ED00E030B4174BDB68C3F30223C3F1A0
:100B70000704042C28BF04241D1D062D18D9033B8F
:100B80004FF0FF3505FA04F421EA0401994005FA13
:100B900003F322EA0303194300280BDB0901C9B25E
:100BA00000F1604000F5614080F8001330BC7047F0
:100BB0000023E5E700F00F000901C9B2024B195408
:100BC000F4E700BF00ED00E014ED00E000F01F02CC
:100BD000400901239340024A42F82030704700BF89
:100BE00000E100E00138B0F1807F0AD2064B586086
:100BF000064AF02182F823100020986007221A602C
:100C000070470120704700BF10E000E000ED00E0F9
:100C1000042805D0054A136823F0040313607047C5
:100C2000024A136843F004031360704710E000E0C9
:100C3000704708B5FFF7FCFF08BD70B4066CC56BC4
:100C40000124B4406C60046863604368102B05D0D5
:100C5000036899600368DA6070BC704703689A6043
:100C60000368D960F8E70000002830D010B40346CC
:100C70000168184A0A441848A0FB020212099200AF
:100C80001A64164ADA63022283F82120086820F4E5
:100C90007F5020F030005A689C682243DC68224371
:100CA0001C6922435C6922439C692243DC6922431C
:100CB00002430A6000209862D86218635863986300
:100CC000012283F8212083F8200010BC7047012006
:100CD000704700BFF8FFFDBFCDCCCCCC0000024078
:100CE00038B590F82040012C32D0012480F8204003
:100CF00090F82140012C04D0002380F820300220FD
:100D000038BD0446022084F821000020A063256835
:100D1000286820F0010028602046FFF78EFFE36A74
:100D20005BB12268136843F00E03136022681368F6
:100D300043F0010313600020E2E72268136823F008
:100D4000040313602268136843F00A031360EDE79D
:100D50000220D5E708B590F82130022B03D00423F8
:100D60008363012008BD0268136823F00E0313603B
:100D70000268136823F0010313600368194A934261
:100D800014D0143293421FD0143293421ED0143226
:100D900093421ED0143293421ED01432934202D09A
:100DA0004FF0807203E04FF4801200E001220E4BFE
:100DB0005A60012380F82130002380F82030436BF3
:100DC0006BB198470020CDE71022F0E74FF4807216
:100DD000EDE74FF48052EAE74FF48032E7E7002076
:100DE000C0E700BF080002400000024038B5C36BF6
:100DF0001A6804682568016C04238B40134235D0BF
:100E000015F0040F32D0236813F0200F03D12368AC
:100E100023F0040323600368434A934214D014323E
:100E2000934218D01432934217D01432934217D001
:100E30001432934217D01432934202D04FF08062A2
:100E400003E04FF4800200E00422384B5A60C36A8A
:100E500003B1984738BD4022F7E74FF48062F4E7CA
:100E60004FF48042F1E74FF48022EEE702238B40FB
:100E700013423CD015F0020F39D0236813F0200F35
:100E800006D1236823F00A032360012380F8213070
:100E90000368254A934214D0143293421CD0143272
:100EA00093421BD0143293421BD0143293421BD076
:100EB0001432934202D04FF0007203E04FF400125C
:100EC00000E00222194B5A60002380F82030836A28
:100ED000002BBFD09847BDE72022F3E74FF4007204
:100EE000F0E74FF40052EDE74FF40032EAE7082351
:100EF00003FA01F11142ADD015F0080FAAD0236812
:100F000023F00E032360026CC16B012303FA02F28B
:100F10004A60836380F82130002380F82030036B1F
:100F2000002B97D0984795E7080002400000024048
:100F3000F0B482B000263546A1E0002C59D0012C37
:100F400000D1CE68FF2B68D88446FF2B68D8AC0050
:100F5000DCF800200F27A74022EA070206FA04F473
:100F60002243CCF800204A6812F0805F00F08680AF
:100F70005E4A946944F001049461926902F00102AE
:100F80000192019AAC08A71C594A52F8272005F093
:100F90000307BF004FF00F0C0CFA07FC22EA0C0C01
:100FA000544A904242D002F5806290427FD002F5CE
:100FB000806290427DD002F58062904234D004225B
:100FC00035E04D4FBC4214D00BD94C4FBC4210D031
:100FD00007F58037BC420CD0A7F58017BC42B1D1D1
:100FE00007E0A7F58017BC4203D007F58037BC4265
:100FF000A8D18C687CB1012C08D042610826A1E7F9
:10100000CE6808369EE7CE680C369BE7026108265C
:1010100098E7002696E7042694E700F1040C94E78D
:10102000A5F10804A40093E7032200E00022BA40DF
:1010300042EA0C0202342E4F47F824204A6812F488
:10104000803F38D02E4C22681A4322604A6812F43E
:10105000003F36D02A4C62681A4362604A6812F434
:10106000801F34D0264CA2681A43A2604A6812F44A
:10107000001F32D0224CE2681343E36001350F2D8C
:1010800031D80122AA400B6813409A42F6D14C682D
:10109000122CB8D095D8022CB2D07FF64EAF032CCC
:1010A000B7D0112C7FF44EAFCE6804364AE7012248
:1010B000BDE70222BBE7124C226822EA030222604B
:1010C000C4E70F4C626822EA03026260C6E70C4C78
:1010D000A26822EA0302A260C8E7094CE26822EA99
:1010E0000303E360CAE702B0F0BC7047001002409F
:1010F00000000140000801400000211000003110F4
:101100000004014012B90904016170470161704790
:10111000C3685940C160704782B0084B1B68084AD9
:10112000A2FB03235B0A00FB03F0019000BF019BBD
:101130005A1E0192002BF9D102B07047080000201E
:10114000D34D621070B582B00446036813F0010FEE
:101150002CD0AB4B5B6803F00C03042B1DD0A84BC9
:101160005B6803F00C03082B12D06368B3F5803F73
:1011700041D0002B55D103F1804303F504331A68A5
:1011800022F480321A601A6822F480221A6037E052
:101190009B4B5B6813F4803FE7D0994B1B6813F4BB
:1011A000003F03D06368002B00F0AE81236813F08A
:1011B000020F76D0924B5B6813F00C0F5FD0904B10
:1011C0005B6803F00C03082B54D02369002B00F05C
:1011D0008A808C4B01221A60FFF798FC0546884BE9
:1011E0001B6813F0020F75D1FFF790FC401B02281B
:1011F000F5D903208BE1824A136843F480331360EE
:10120000636843B3FFF782FC05467D4B1B6813F40C
:10121000003FCBD1FFF77AFC401B6428F5D90320AF
:1012200075E1B3F5A02F09D0754B1A6822F480320E
:101230001A601A6822F480221A60E1E703F1804301
:10124000A3F53C331A6842F480221A601A6842F40B
:1012500080321A60D4E7FFF759FC0546684B1B68DB
:1012600013F4003FA2D0FFF751FC401B6428F5D9CE
:1012700003204CE1624B5B6813F4803FA5D1604BC7
:101280001B6813F0020F04D02369012B01D0012049
:101290003DE15B4A136823F0F803616943EAC10347
:1012A0001360236813F0080F32D0A369002B5BD0C2
:1012B000554B01221A60FFF729FC0546504B5B6A2B
:1012C00013F0020F21D1FFF721FC401B0228F5D9B2
:1012D00003201CE14A4A136823F0F803616943EADA
:1012E000C1031360DDE7474B00221A60FFF70EFCD5
:1012F0000546434B1B6813F0020FD2D0FFF706FCE4
:10130000401B0228F5D9032001E10120FFF704FF6B
:10131000236813F0040F00F09780394BDB6913F05A
:10132000805F33D1364BDA6942F08052DA61DB6993
:1013300003F080530193019B0125344B1B6813F488
:10134000807F25D0E368012B36D0002B4CD103F1F0
:10135000804303F504331A6A22F001021A621A6A02
:1013600022F004021A622CE0274B00221A60FFF7D9
:10137000CDFB0546224B5B6A13F0020FC8D0FFF786
:10138000C5FB401B0228F5D90320C0E00025D4E7A7
:101390001E4A136843F480731360FFF7B7FB0646D9
:1013A0001A4B1B6813F4807FCCD1FFF7AFFB801B77
:1013B0006428F5D90320AAE0114A136A43F0010317
:1013C0001362E36873B3FFF7A1FB06460C4B1B6A7D
:1013D00013F0020F37D1FFF799FB801B41F28833DE
:1013E0009842F3D9032092E0052B11D0044B1A6ADE
:1013F00022F001021A621A6A22F004021A62E0E77D
:10140000001002400000424280044242007000404E
:10141000414B1A6A42F004021A621A6A42F001024F
:101420001A62CEE7FFF772FB06463B4B1B6A13F0CE
:10143000020F08D0FFF76AFB801B41F28833984205
:10144000F3D9032063E0E5B9E369002B5ED0324AAB
:10145000526802F00C02082A5BD0022B17D02F4BE7
:1014600000221A60FFF752FB04462B4B1B6813F057
:10147000007F47D0FFF74AFB001B0228F5D9032065
:1014800045E0254AD36923F08053D361DCE7234B41
:1014900000221A60FFF73AFB05461F4B1B6813F04A
:1014A000007F06D0FFF732FB401B0228F5D903204E
:1014B0002DE0236AB3F5803F1AD017494B6823F417
:1014C0007413226A606A024313434B60134B012278
:1014D0001A60FFF71BFB04460F4B1B6813F0007FDD
:1014E0000ED1FFF713FB001B0228F5D903200EE0F5
:1014F000094A536823F40033A1680B435360DCE7C7
:10150000002004E0002002E0012000E0002002B002
:1015100070BD0120FBE700BF0010024060004242A6
:1015200010B487B0164C94E80F000DF1180C0CE9BC
:101530000F00238AADF80430124B5B6803F00C02F5
:10154000082A1AD1C3F38342624412F8102C13F410
:10155000803F05D10C4800FB02F007B010BC70477B
:10156000084B5B68C3F34043634413F8143C0748DB
:1015700000FB02F0B0FBF3F0EFE70448EDE700BF3B
:10158000D03E00080010024000093D0000127A0021
:10159000594B1B6803F007038B420CD2564A136861
:1015A00023F007030B431360136803F007038B4218
:1015B00001D00120704770B5036813F0020F06D008
:1015C0004E4A536823F0F0038468234353600C466B
:1015D0000546036813F0010F52D04368012B23D056
:1015E000022B28D0454A126812F0020F00F08280C8
:1015F00042494A6822F0030213434B60FFF786FA20
:1016000006466B68012B1DD0022B2AD03B4B5B6832
:1016100013F00C0F34D0FFF779FA801B41F28833B6
:101620009842F3D9032064E0344A126812F4003F70
:10163000DED101205DE0314A126812F0007FD7D17F
:10164000012056E02D4B5B6803F00C03042B17D0F0
:10165000FFF75CFA801B41F288339842F2D90320ED
:1016600047E0264B5B6803F00C03082B08D0FFF71C
:101670004DFA801B41F288339842F2D9032038E0BA
:101680001D4B1B6803F00703A3420CD91A4A1368C9
:1016900023F0070323431360136803F00703A342F7
:1016A00001D0012025E02B6813F0040F06D0134A67
:1016B000536823F4E063E9680B4353602B6813F02D
:1016C000080F07D00D4A536823F46053296943EA91
:1016D000C1035360FFF724FF084B5B68C3F3031398
:1016E000074AD35CD840074B18600020FFF7CCF9BD
:1016F000002070BD0120FCE70020024000100240E5
:10170000E43E000808000020014B1868704700BF45
:101710000800002008B5FFF7F7FF044B5B68C3F330
:101720000223034AD35CD84008BD00BF001002402A
:10173000F43E000808B5FFF7E7FF044B5B68C3F30E
:10174000C223034AD35CD84008BD00BF001002404A
:10175000F43E00080268D36823F0C003D36020235E
:1017600080F8393070470268D36823F49073D360EF
:101770000268536923F001035361202380F83A3053
:10178000704790F83930DBB2212B2AD18368B3F54A
:10179000805F16D0036A5A1C02621A7803685A6086
:1017A000C38C013B9BB2C384EBB90268D36823F0BE
:1017B0008003D3600268D36843F04003D360002005
:1017C0007047036A1B880268C3F308035360036908
:1017D0001BB9036A02330362E2E7036A013303625F
:1017E000DEE7022070470020704700002DE9F84333
:1017F00005460268136923F44053C1680B43136123
:10180000836802691343426913430168CA6822F47A
:10181000B05222F00C021343CB600268536923F4E8
:10182000407381690B4353610268594B9A4257D008
:10183000FFF770FF00EB800000EB80006C68A400F5
:10184000B0FBF4F4534FA7FB043464092601FFF7FF
:1018500061FF00EB800000EB80006C68A400B0FB2F
:10186000F4F9FFF757FF00EB800000EB80006C6895
:10187000A400B0FBF4F4A7FB043464094FF064083F
:1018800008FB149424013234A7FB0434640904F0E7
:10189000F0043444FFF73EFF00EB800000EB8000D3
:1018A0006E68B600B0FBF6F6FFF734FF00EB800081
:1018B00000EB80006B689B00B0FBF3F0A7FB0030EF
:1018C000400908FB10684FEA081808F13208A7FB26
:1018D0000837C7F343172B6827449F60BDE8F88398
:1018E000FFF728FF00EB800000EB80006C68A4008D
:1018F000B0FBF4F4274FA7FB043464092601FFF77B
:1019000019FF00EB800000EB80006C68A400B0FBC6
:10191000F4F9FFF70FFF00EB800000EB80006C682C
:10192000A400B0FBF4F4A7FB043464094FF064088E
:1019300008FB149424013234A7FB0434640904F036
:10194000F0043444FFF7F6FE00EB800000EB80006B
:101950006E68B600B0FBF6F6FFF7ECFE00EB800019
:1019600000EB80006B689B00B0FBF3F0A7FB00303E
:10197000400908FB10684FEA081808F13208A7FB75
:101980000837C7F343172B6827449F60A6E700BFBB
:10199000003801401F85EB5158B310B5044690F84C
:1019A00039300BB3242384F839302268D36823F408
:1019B0000053D3602046FFF719FF2268136923F410
:1019C000904313612268536923F02A03536122680C
:1019D000D36843F40053D3600020E063202384F8ED
:1019E000393084F83A3010BD80F8383000F0F6FB1A
:1019F000D8E70120704790F83930DBB2202B16D1A0
:101A0000B9B1C2B190F83830012B16D0016282848E
:101A1000C2840023C363212280F8392080F8383043
:101A20000168CA6842F08002CA6018467047022006
:101A30007047012070470120704702207047000066
:101A400038B590F83940E4B2202C31D1002931D09A
:101A5000002A31D090F83830012B2FD0134604469D
:101A6000012280F8382001628384C3840025C56385
:101A7000212280F83920026B11489062226B1148B4
:101A8000D062226B10481063226B556322680432C7
:101A9000206BFFF725F923686FF040021A6084F885
:101AA00038502268536943F080035361284600E0B0
:101AB000022038BD0120FCE70120FAE70220F8E708
:101AC000771B0008C31B0008B51C000830B583B0A5
:101AD00090F83A40E4B2202C3DD100293ED0002AB3
:101AE0003ED090F83830012B3CD013460A460446CD
:101AF000012180F83810826283850025C563222188
:101B000080F83A10416B18488862616B1748C862C8
:101B1000616B17480863616B4D6321680431606B2A
:101B2000FFF7DEF8019523681A6801925A6801925E
:101B3000019A84F83850DA6842F48072DA602268D8
:101B4000536943F0010353612268536943F0400332
:101B50005361284600E0022003B030BD0120FBE7BE
:101B60000120F9E70220F7E7CD1B0008A91C0008B7
:101B7000B51C0008704708B5436A0268126812F085
:101B8000200F0CD10022DA8419684A6922F0800201
:101B90004A611A68D36843F04003D36008BD184611
:101BA000FFF7E8FFFAE708B50168CB6823F04003C8
:101BB000CB60202380F83930FFF7DCFF002008BD20
:101BC000704708B5406AFFF7FBFF08BD08B5436AD8
:101BD0000268126812F0200F13D10022DA8519680A
:101BE000CA6822F48072CA6019684A6922F0010248
:101BF0004A6119684A6922F040024A61202283F84A
:101C00003A20184600F078FA08BD08B590F83A3046
:101C1000DBB2222B45D18368B3F5805F0ED0036918
:101C200003BB03685A68836A591C81621A70C38DAA
:101C3000013B9BB2C385F3B1002033E0826A0369A4
:101C400043B903685B68C3F308031380836A0233F4
:101C50008362ECE703685B68DBB21380836A01335D
:101C60008362E4E703685B68826A511C816203F067
:101C70007F031370DBE70268D36823F02003D3608F
:101C80000268D36823F48073D3600268536923F039
:101C900001035361202380F83A3000F02DFA002030
:101CA00000E0022008BD704708B5406AFFF7FBFF5F
:101CB00008BD704710B5446A23685A6994F83930F2
:101CC000DBB2212B10D023685A6902F0400294F84D
:101CD0003A30DBB2222B11D0E36B43F01003E36305
:101CE0002046FFF7E6FF10BD02F08002002AEAD08E
:101CF0000023E3842046FFF72DFDE4E7002AEBD024
:101D00000023E3852046FFF72EFDE5E710B50446E6
:101D100002681368D168526913F00F0005D113F0FF
:101D2000200F02D011F0200F53D1002867D012F0FD
:101D3000010202D111F4907F61D013F0010F06D09F
:101D400011F4807F03D0E06B40F00100E06313F0FA
:101D5000040F04D01AB1E06B40F00200E06313F00E
:101D6000020F04D01AB1E06B40F00400E06313F0FE
:101D7000080F04D01AB1E26B42F00802E263E26B92
:101D8000002A48D013F0200F02D011F0200F24D1E8
:101D900023685B6903F04003E26B12F0080F00D187
:101DA0003BB32046FFF7DFFC23685A6912F0400F6F
:101DB0001BD05A6922F040025A61636B8BB11A4AF8
:101DC0005A63606BFEF7C6FF28B3606B436B98479E
:101DD00021E02046FFF719FF1DE02046FFF715FF21
:101DE000D6E72046FFF765FF15E02046FFF761FFC5
:101DF00011E02046FFF75DFF0023E3630BE013F0E3
:101E0000800F02D011F0800F06D113F0400F02D0E6
:101E100011F0400F04D110BD2046FFF7B2FCFAE7E5
:101E20002046FFF7C0FEF6E72D1E000808B5406A01
:101E30000023C385C384FFF73CFF08BD0023164A77
:101E40001370164A1370164A16491160164A17493C
:101E5000116080F8453080F844300372C37183719B
:101E6000C3708370437080F83E3080F83D3080F856
:101E70003C30036483800022826342630263C26257
:101E8000826242620261C260094A8264C26402657F
:101E900042650370704700BF11020020F801002066
:101EA00004030020140200200C0200208C020020F9
:101EB0000094357782B00A4B9A6942F020029A6109
:101EC0009A6902F020020092009A9A6942F0040294
:101ED0009A619B6903F004030193019B02B0704770
:101EE0000010024000B583B00E4B5A6942F0010267
:101EF0005A615B6903F001030193019B00221146C3
:101F00001020FEF72FFE1020FEF760FE0022114683
:101F10001120FEF727FE1120FEF758FE03B05DF8F2
:101F200004FB00BF0010024008B50422014602482D
:101F3000FFF786FD08BD00BF8C05002008B54FF4F3
:101F400000510348FFF7E4F86420FEF7E5FDF6E7EB
:101F50000010014008B50B480B4B03604FF4E13310
:101F6000436000238360C36003610C22426183618C
:101F7000C361FFF711FD00B908BDDD210348FFF77C
:101F8000DDFF00BFE804002000380140903F00085A
:101F900008B50B480B4B03604FF416534360002306
:101FA0008360C36003610C2242618361C361FFF7F8
:101FB000F3FC00B908BDF0210348FFF7BFFF00BFE5
:101FC0008C05002000440040903F000800B591B00F
:101FD000012206924FF480330793002108910A9260
:101FE00002220D920E934FF4E0130F9306A8FFF711
:101FF000A9F808BB0F230193022102910023039348
:102000004FF480620492059301A8FFF7C1FAB8B9B2
:10201000FFF77AFB0C4BA3FB00308009FEF7E2FDD3
:102020000420FEF7F5FD002211464FF0FF30FEF7C9
:1020300099FD11B05DF804FBB2210448FFF77EFF63
:10204000C0210248FFF77AFFD34D6210903F00088D
:1020500008B5FEF73DFDFFF7B9FFFFF72BFFFFF7D0
:1020600041FFFFF777FFFFF793FF1B4C00224FF470
:1020700000512046FFF746F84FF4FA70FEF74CFD8A
:1020800001224FF400512046FFF73CF84FF4FA705C
:10209000FEF742FD00224FF400512046FFF732F8D0
:1020A0004FF4FA70FEF738FD0C48FFF7C7FE0C48F6
:1020B000FFF73AFF0B48FFF737FF0B48FFF734FFF6
:1020C00064220A490A48FFF701FD00B9FEE78A21A8
:1020D0000848FFF733FF00BF0010014090040020C4
:1020E000A03F0008D43F0008E43F00082805002076
:1020F0008C050020903F000810B504464FF40051B5
:102100000948FFF705F8A28DA16A0848FFF773FC9C
:10211000642207490748FFF7D9FC00B910BD4FF406
:1021200097710548FFF70AFF00100140E8040020FE
:10213000280500208C050020903F000800B583B0E2
:10214000244B9A6942F001029A619A6902F00102F5
:102150000092009ADA6942F08052DA61DB6903F09A
:1021600080530193019B0320FEF7EAFC00221146F5
:102170006FF00B00FEF7F6FC002211466FF00A002C
:10218000FEF7F0FC002211466FF00900FEF7EAFCB2
:10219000002211466FF00400FEF7E4FC0022114615
:1021A0006FF00300FEF7DEFC002211466FF0010025
:1021B000FEF7D8FC002211464FF0FF30FEF7D2FCAC
:1021C000054A536823F0E06343F00073536003B0A3
:1021D0005DF804FB001002400000014070B586B0BD
:1021E0000368444A934205D00446434A93422AD0A6
:1021F00006B070BD414B9A6942F480429A619B6976
:1022000003F480430093009B4FF400730293022376
:102210000393032305933A4D02A92846FEF788FE4F
:102220004FF48063029300240394049402A9284687
:10223000FEF77EFE224621462520FEF793FC252050
:10224000FEF7C4FCD4E72D4BDA6942F40032DA61C0
:10225000DB6903F400330193019B042302930223FF
:10226000039303230593264E02A93046FEF760FE32
:10227000082302930025039504950DEB03013046D6
:10228000FEF756FE1F48204B0360456085608023A3
:10229000C360056145618561C561FEF7E5FCF0B984
:1022A000184B63635C621948194B03601023436049
:1022B000002383608022C260036143618361C36144
:1022C000FEF7D2FC80B9114B23635C6200221146F9
:1022D0002620FEF747FC2620FEF778FC88E79B21A6
:1022E0000C48FFF72BFEDBE7AB210A48FFF726FE81
:1022F000E9E700BF00380140004400400010024000
:1023000000080140080300206C0002404C0400203B
:1023100080000240F43F00087047FEE7FEE7FEE75A
:10232000FEE770477047704708B5FEF7E3FBFEF71E
:1023300080FC08BD08B50248FEF758FD08BD00BF87
:102340000803002008B50248FEF750FD08BD00BF95
:102350004C04002008B50248FFF7D8FC08BD00BFB8
:10236000E804002008B50248FFF7D0FC08BD00BF14
:102370008C0500200F4B1A6842F001021A60596860
:102380000D4A0A405A601A6822F0847222F48032A0
:102390001A601A6822F480221A605A6822F4FE0237
:1023A0005A604FF41F029A60044B4FF000629A602B
:1023B000704700BF001002400000FFF800ED00E091
:1023C000002103E00B4B5B58435004310A480B4B90
:1023D00042189A42F6D30A4A02E0002342F8043B2C
:1023E000084B9A42F9D3FFF7C5FF00F00FF8FFF74B
:1023F0002FFE70474842000800000020DC0100204A
:10240000DC01002004060020FEE7000070B5002576
:102410000C4E0D4CA41BA410A54209D101F04AFD9D
:1024200000250A4E0A4CA41BA410A54205D170BD7C
:1024300056F8253098470135EEE756F8253098478D
:102440000135F2E7404200084042000840420008DF
:102450004442000803460244934200D1704703F807
:10246000011BF9E7002B2DE9F0471E46BBBF03F126
:1024700000431E4600232D2388B0149FDDE9121A65
:1024800027F02007462F1446109D0B7004D0452FCF
:1024900000D10135022300E0032307AA049206AA13
:1024A000CDE902A2CDE900352246334600F0A8FB73
:1024B000472F804602D1119BDB0726D5462F08EB1C
:1024C000050911D198F80030302B0AD100220023E1
:1024D00020463146FEF768FA18B9C5F10105CAF879
:1024E0000050DAF80030994400220023204631469B
:1024F000FEF75AFA38B93022079B4B4505D2591CD2
:1025000007911A70F8E7CDF81C904046079B159A82
:10251000A3EB0803136008B0BDE8F087F7B5002906
:10252000B4BF2D232B230446B8BF4942092904F820
:10253000022B437021DD0DF107031F460A2691FB94
:10254000F6F506FB1511092D01F1300103F8011C08
:1025500003F1FF32294609DC3031023B02F8011C4D
:10256000BB42224604D3101A03B0F0BD1346E6E77F
:1025700013F8012B04F8012BF2E730231944837080
:10258000021DC170EFE700002DE9F04F91B00C463D
:102590001A9F93461E46054601F0E6F80368184662
:1025A0000993FEF7A3F900230E933B680A900733C3
:1025B00023F0070303F1080294F81880D4F800A070
:1025C0003A60D3E90023C4E91223D4E9127929F04F
:1025D00000430B934FF0FF32A64B38460B99FEF7A2
:1025E00015FA68BB4FF0FF32A24B38460B99FEF745
:1025F000EFF928BB0022002338464946FEF7DEF9F2
:1026000010B12D2384F843309B4F9C4BB8F1470FFA
:1026100098BF1F4603234FF0000923612AF00403EB
:10262000236000965B460FAA2146284600F0E2F997
:10263000013040F090804FF0FF3011B0BDE8F08FD6
:102640003A464B4638464946FEF7E0F910B18C4F02
:102650008C4BDBE763684AF48062591C0DA80EA915
:1026600040D1062363604FF0000C0DF13303CDE938
:10267000012363682260CDE9030800933A464B4684
:10268000CDE9051C2846FFF7EDFE08F0DF03472BD8
:10269000074609D10D9BD81C02DB6268934247DDD7
:1026A000A8F102085FFA88F8B8F1650F0D9924D8EF
:1026B0000139424604F150000D91FFF72FFF0E9AA9
:1026C00081461318012A236102DC2268D10701D553
:1026D000013323619DF83330002BA2D02D2384F8E1
:1026E00043309EE7B8F1670F00F06E81B8F1470FF5
:1026F000B9D1002BB7D10123B4E7B8F1660F19D1D6
:10270000002963680CDD216113B92268D20702D564
:1027100001330B4423610D9B4FF00009A365D9E7FA
:1027200013B92268D00701D50233F3E70123F1E79B
:102730004FF06708DDE90D32934205DB2268236123
:10274000D107E8D50133E5E7002BCCBF0123C3F166
:1027500002031344DEE723685A0507D423693A4687
:1027600059462846B047013029D164E7B8F1650FD2
:1027700040F2D780D4E9120100220023FEF714F9B9
:1027800088B30123404A59462846B04701303FF4F8
:1027900052AFDDE90D239A4202DB2368D8070ED53C
:1027A000DDE9092359462846B04701303FF443AFDD
:1027B000002704F11A080E9B013BBB4209DC236889
:1027C0009F0700F1FD80E0680F9B9842B8BF184654
:1027D00033E70123424659462846B04701303FF4CB
:1027E0002AAF0137E7E70D9B002B2BDC0123264A9C
:1027F00059462846B04701303FF41DAF0D9B23B921
:102800000E9B13B92368D907D9D5DDE909235946A9
:102810002846B04701303FF40EAF4FF0000804F1F6
:102820001A090D9B5B42434501DC0E9B97E7012390
:102830004A4659462846B04701303FF4FCAE08F1FD
:102840000108EEE70E9AA36D9A42A8BF1A46002A25
:10285000904607DD134659463A462846B0470130B0
:102860003FF4E9AE04F11A034FF0000A28EAE878D1
:102870000B9315E0FFFFEF7F1440000810400008A5
:102880001C400008184000082040000801230B9A53
:1028900059462846B04701303FF4CDAE0AF1010A4F
:1028A000D4F85890A9EB08035345EFDCDDE90D237C
:1028B0009A424F4414DB2368DA0711D40E9B0D991A
:1028C000A3EB0902A3EB01099145A8BF9146B9F119
:1028D000000F0DDC002729EAE97904F11A0818E055
:1028E000DDE9092359462846B0470130E6D1A2E682
:1028F0004B463A4659462846B0470130EAD19AE657
:102900000123424659462846B04701303FF493AE72
:102910000137DDE90D239B1AA3EB0903BB42EFDC72
:102920004DE70E9A012A01DCDB0738D501233A4630
:1029300059462846B04701303FF47DAEDDE9092312
:1029400059462846B047013007F101073FF473AEFE
:10295000D4E912010E9B002203F1FF380023FEF799
:1029600023F8C0B943463A4659462846B047013095
:102970000DD160E60123424659462846B047013052
:102980003FF459AE01370E9B013BBB42F2DC4B4694
:1029900004F15002E4E6002704F11A08F3E70123EA
:1029A000E1E70123424659462846B04701303FF44B
:1029B00042AE0137E3680F9A9B1ABB42F1DC02E793
:1029C000002704F11908F5E7002B3FF494AE4FF00F
:1029D000000CCDE9051C0DF133012260CDE903089F
:1029E000CDE9012100933A464B462846FFF73AFDD0
:1029F00007464FE62DE9F04791461F468A680B6966
:102A000006469342B8BF1346C9F8003091F84320F8
:102A10000C46DDF8208012B10133C9F8003023687C
:102A2000990642BFD9F800300233C9F80030256852
:102A300015F0060507D104F1190AE368D9F800205A
:102A40009B1AAB4229DC94F843302268003318BF4C
:102A5000012392062ED404F1430239463046C04782
:102A6000013021D02368E56803F00603042B18BF6A
:102A70000025D9F800204FF0000908BFAD1AA3685F
:102A8000226908BF25EAE5759342C4BF9B1AED1879
:102A90001A344D451AD1002008E001235246394628
:102AA0003046C047013003D14FF0FF30BDE8F0871A
:102AB0000135C2E73020E11881F843005A1C94F830
:102AC00045102244023382F84310C4E70123224612
:102AD00039463046C0470130E6D009F10109D8E750
:102AE0002DE9F74F03690C698046A342C0F2848048
:102AF000013C01F1140700F1140657F8245056F870
:102B000024000135B0FBF5F54FEA840C06EB0C030D
:102B100007EB0C0901939DB34FF0000A3846B64607
:102B2000D34650F8042B93B205FB03A3120C4FEAD3
:102B3000134A05FB02A29BB2ABEB0303DEF800B025
:102B40004FEA124A1FFA8BFB5B441FFA82FBDEF846
:102B500000208145CBEB124202EB23429BB243EAB9
:102B600002434FEA224B4EF8043BDAD256F80C30BF
:102B700033B9019B043B9E421A4631D3C8F810403A
:102B8000404601F039F8002826DB30464FF0000CB3
:102B9000013557F8041BD0F800E08BB2ACEB03030F
:102BA0001FFA8EF213440A0CC2EB1E4202EB2342C0
:102BB0009BB243EA0243B9454FEA224C40F8043B3A
:102BC000E7D256F8242006EB84032AB9043B9E4240
:102BD0001A460BD3C8F81040284603B0BDE8F08F62
:102BE0001268043B002AC9D1013CC4E71268043BC7
:102BF000002AEFD1013CEAE70020EEE700000000E8
:102C00002DE9F04F16461F46456A95B00446DDF89B
:102C10008480CDE902673DB9102000F0B3FD606209
:102C2000C0E901550560C560636A196851B15A6809
:102C3000012393404A608B60204600F0FCFD002297
:102C4000636A1A603B1EAFBF0023012223F00043DA
:102C50000393ACBFC8F80030C8F80020AE4BDDF8D5
:102C60000C8033EA08031BD142F20F73209A1360E1
:102C7000029B23B9C8F31300002800F04585229B6E
:102C800053B9A64B21E0A64B06930833229A136052
:102C9000069815B0BDE8F08FA04B06930333F5E717
:102CA000DDE902670022002330463946FDF77CFE4D
:102CB000824660B10123209A1360229B002B00F012
:102CC0002085984B229A1360013B0693E0E712ABF4
:102CD000019313AB009332463B46204601F004F8C3
:102CE000C8F30A558346002D7DD0B046C7F31303C1
:102CF00043F07F5949F44019A5F2FF35CDF840A0C3
:102D00000022894B40464946FDF726FA7CA3D3E9C9
:102D10000023FDF7D9FB7CA3D3E90023FDF71EFABE
:102D2000064628460F46FDF765FB79A3D3E9002345
:102D3000FDF7CAFB02460B4630463946FDF70EFA50
:102D400006460F46FDF778FE0022824600233046F5
:102D50003946FDF733FE48B15046FDF74BFB32468E
:102D60003B46FDF721FE08B90AF1FF3ABAF1160F0A
:102D70005AD8DDE902236D4901EBCA01D1E900010E
:102D8000FDF73AFE002851D000230AF1FF3A0D93D7
:102D9000129B5D1B6B1E079343BF0023C5F1010906
:102DA00007934FF00009BAF1000F41DB079BCDF804
:102DB00030A053440793002308931E9B092B00F275
:102DC0008F80052BC4BF043B1E931E9BC8BF0025EC
:102DD000A3F10203D8BF0125032B00F28D80DFE8A9
:102DE00003F07B7D2F6FDDE912531D4405F2324065
:102DF000202813DDC0F14000029B08FA00F805F21C
:102E0000124023FA00F048EA0000FDF7E3FA01233C
:102E10008046A1F1F879013D109371E7029BC0F162
:102E2000200003FA00F0F0E70123B0E70D90AFE7D0
:102E3000CAF1000308930023A9EB0A090C93BCE72D
:102E4000012309931F9B002B74DD984604930022F5
:102E5000666A7260042202F11400984271686ED9A9
:102E6000204600F0B4FC636A30601B68B8F10E0FB6
:102E7000069300F2ED80002D00F0EA80DDE90223E8
:102E8000BAF1000FCDE90E2377DD284A0AF00F03CF
:102E90004FEA2A1602EBC303F006D3E90023CDE97B
:102EA0000A2368D5DDE90E01214B0325D3E9082368
:102EB000FDF734FCCDE9020106F00F061C4F4FE090
:102EC000012309931F9B534403F1010804934346D4
:102ED000012BB8BF0123BAE70023B2E70023F0E7D4
:102EE0000125002309951E934FF0FF330022049320
:102EF000984612231F92AAE701230993F4E700BF23
:102F000061436F63A787D23FB3C8608B288AC63FEF
:102F1000FB799F501344D33F0000F07F2B40000803
:102F200022400008214000080000F83F68400008E7
:102F3000404000080123049398461A46DAE701311D
:102F40007160520087E7F10708D5DDE90A01D7E98A
:102F50000023FDF7B9FACDE90A01013576100837EB
:102F6000002EF0D1DDE90A23DDE90201FDF7D6FBF1
:102F7000CDE902011BE00225A0E700F0A480DDE915
:102F80000E01CAF10006A04B06F00F0203EBC203CC
:102F9000D3E90023FDF798FA02250023CDE90201C9
:102FA0009A4F3611002E40F08380002BE0D10D9B0C
:102FB000002B00F08A80DDE90223CDE90A23DDE958
:102FC0000A010022924BFDF7F9FC00287DD0B8F1F0
:102FD000000F7AD0049B002B36DDDDE90A010022C8
:102FE0008C4BFDF771FACDE90201049E0AF1FF371F
:102FF00001352846FDF7FEF9DDE90223FDF764FA05
:103000000022854BFDF7AAF8A1F15075CDE90A0120
:103010000B95002E5CD1DDE9020100227F4BFDF70C
:103020009BF80A9A2B46CDE90201FDF7E5FC002842
:1030300040F08182DDE902010A9A05F10043FDF7C3
:10304000BDFC002840F07582DDE90E23CDE90223A6
:10305000139B002BC0F24B81BAF10E0F00F3478196
:10306000694B03EBCA03D3E90023CDE904231F9B7B
:10307000002B80F2D780B8F1000F00F3D38040F02E
:103080005782DDE904010022644BFDF71DFADDE9FA
:103090000223FDF7A7FC46464746002840F02D8254
:1030A000069B069A5D1C31230AF1010A137028E27F
:1030B000F20705D5D7E90023FDF706FA012301350C
:1030C000761008376EE7022571E75746464690E7C7
:1030D0004D4B03EBC60353E90201099B002B48D07B
:1030E00002460B4600204E49FDF718FBDDE90A2396
:1030F000FDF732F8CDE90A01069DDDE90201FDF791
:103100009BFC1190FDF776F902460B46DDE90201C2
:10311000FDF722F8119BCDE90201303305F8013BA0
:10312000DDE90A23FDF74AFC002863D1DDE902232B
:1031300000203749FDF710F8DDE90A23FDF73EFCD2
:10314000002840F0B580069BEB1A9E427FF77CAFCB
:10315000DDE90A0100222F4BFDF7B6F90022CDE987
:103160000A01DDE902012B4BFDF7AEF9CDE90201C1
:10317000C3E7DDE90A23FDF7A7F9069BCDE90A01BC
:103180009D191E46DDE90201FDF756FC1190FDF781
:1031900031F902460B46DDE90201FCF7DDFF119B28
:1031A000CDE90201303306F8013BAE424FF0000298
:1031B00024D1DDE90A011A4BFCF7D0FF02460B4689
:1031C000DDE90201FDF718FC002871D1DDE90A23D1
:1031D00000201349FCF7C0FF02460B46DDE902015F
:1031E000FDF7ECFB00283FF42FAF15F8013C6A1EF9
:1031F000302B01D0BA464AE01546F6E7054BFDF7FD
:1032000063F9CDE90201BDE76840000840400008CD
:103210000000F03F0000244000001C40000014406B
:103220000000E03F069DDDE90267DDE9042330464A
:103230003946FDF773FAFDF7FFFB8146FDF7DAF833
:10324000DDE90423FDF740F902460B4630463946D6
:10325000FCF782FF09F1300605F8016B069E024675
:10326000AE1BB0450B4635D1FCF778FFDDE90423F2
:1032700006460F46FDF7C0FBC8B9DDE9042330461A
:103280003946FDF791FB10B119F0010F0FD15946E6
:10329000204600F0D0FA0023209A2B700AF1010397
:1032A0001360229B002B3FF4F3AC1D60F0E4574603
:1032B00015F8012C6B1E392A06D1069A9A4207D1BD
:1032C00030231370134601371A7801321A7091E7D0
:1032D0001D46EDE70022994BFDF7F6F8002200238A
:1032E00006460F46FDF760FB00289ED0CFE7099AFF
:1032F000002A00F088801E9A012A6DDC109A002AAC
:1033000066D003F233434D46089E079A01211A44C2
:1033100020469944079200F02EFB0746002D0BDD56
:10332000079B002B08DDAB42A8BF2B46079AA9EBF1
:103330000309ED1AD31A0793089BEBB1099B002BE5
:1033400065D08EB139463246204600F0B3FB5A466E
:1033500001460746204600F017FB59460A902046D2
:1033600000F069FA0A9B9B46089B9A1B04D05946B9
:10337000204600F09FFB83460121204600F0FBFA27
:103380000C9B0646002B00F0C6811A4601462046DB
:1033900000F090FB1E9B0646012B3EDC029B002B9F
:1033A00037D1039BC3F31303002B34D1039B23F0CA
:1033B00000431B0D1B052BB1079B09F101090133CC
:1033C0000793012308930C9B002B28D101202EE0AA
:1033D000129BC3F1360396E7089B08F1FF36B34210
:1033E000B7BF089B9E1BF21A0C9BBFBF08969B1889
:1033F0000C930026B8F1000FB9BFA9EB0805002314
:103400004D46434681E7089E4D46099F86E7089A48
:10341000ADE70023D6E7029BD4E700230893336986
:1034200006EB8303186900F058FAC0F12000079BEF
:10343000184410F01F0047D0C0F12003042B3BDDDF
:10344000079BC0F11C008144054403440793B9F174
:10345000000F05DD59464A46204600F079FB8346B9
:10346000079B002B05DD31461A46204600F070FB15
:1034700006460D9B53B33146584600F0BDFB00286D
:1034800024DA002359460A22204600F0EBF9099B72
:103490000AF1FF3A8346002B00F0448100233946AD
:1034A0000A22204600F0DEF9049B0746002B4DDC83
:1034B0001E9B022B4ADD11E0C9D0079A1C331A4427
:1034C00099441D441346C1E70346F6E7B8F1000FDF
:1034D00036DC1E9B022B33DDCDF81080049B63B9D4
:1034E00031460522204600F0BDF901460646584601
:1034F00000F082FB00283FF7D3AD1F9B069D6FEACB
:10350000030A4FF000093146204600F094F9002FDD
:103510003FF4BDAEB9F1000F05D0B94503D049461F
:10352000204600F088F93946204600F084F9AEE6DE
:1035300000263746E1E7BA463746B1E500002440A9
:10354000099BCDF81080002B00F0F380002D05DDE5
:1035500039462A46204600F0FBFA0746089B002B16
:103560004CD07968204600F032F905463A6907F1F7
:103570000C01023292000C3000F01EF901222946A3
:10358000204600F0E5FAB9460746069B0793029BE2
:1035900003F00103089331465846FFF7A1FA494664
:1035A000054600F13008584600F026FB3A460290E6
:1035B0003146204600F03AFBC368024603BB014691
:1035C0000990584600F018FB0346099A1146204618
:1035D000099300F030F9099BA3B91E9A92B9089A91
:1035E00082B9B8F1390F29D0029B002B01DD05F11A
:1035F0003108079B5D1C83F8008084E73846C2E7EA
:103600000123E3E7029A002A04DB23D11E9A0ABBB6
:10361000089AFAB9002BECDD59460122204600F049
:1036200097FA3146834600F0E7FA002803DCE0D140
:1036300018F0010FDDD0B8F1390FD8D1079B079AE8
:103640005D1C3923137015F8013C6A1E392B4DD0CF
:10365000013352E0079A002B02F1010506DDB8F1B3
:10366000390FEBD008F10108079BC4E7069B049AC9
:10367000EB1A934205F8018C21D0594600230A2207
:10368000204600F0EFF8B94583464FF000034FF0B5
:103690000A024946204605D100F0E4F88146074673
:1036A000079578E700F0DEF83946814600230A22C4
:1036B000204600F0D7F80746F2E74FF000095946D8
:1036C0000122204600F044FA3146834600F094FA85
:1036D0000028B8DC02D118F0010FB4D115F8013C74
:1036E0006A1E302B7FF40FAF1546F7E7069B934217
:1036F00005D13123069A0AF1010A137003E7154632
:10370000A1E7174BFFF7E1BA229B002B7FF4BBAA7E
:10371000144BFFF7DABA1E9B012B7FF73FAE0C9BD1
:10372000089353E6049B002B03DC1E9B022B3FF700
:10373000D5AE069D31465846FFF7D2F9069B00F1FB
:10374000300805F8018B049AEB1A9A42B5DD594608
:1037500000230A22204600F085F88346EAE700BFEE
:103760002040000822400008044B1B68186A044BE4
:10377000002808BF1846F030704700BF0C0000203A
:1037800070000020024B0146186800F00BBB00BF20
:103790000C00002082B001B901A942B14BB11378ED
:1037A0000B601278101C18BF012002B07047104641
:1037B000FBE76FF00100F8E710B5431E0A449142A1
:1037C00000D110BD11F8014B03F8014FF7E770B5B8
:1037D000456A04460E463DB91020FFF7D3FF6062EC
:1037E000C0E901550560C560656AEB6883B1636A2D
:1037F000DB6853F82600B8B9012101FA06F56A1D05
:103800009200204600F0BFFA60B1C0E901650EE009
:1038100021220421204600F0B6FA636AE860DB68E2
:10382000002BE4D1002070BD026843F8262000235D
:10383000C0E90333F7E770B5446A06460D463CB964
:103840001020FFF79FFF7062C0E901440460C4606C
:103850003DB1736A6A68DB6853F82210296043F847
:10386000225070BD2DE9F0411F4606460C4600234C
:103870000D6901F1140CDCF80000013381B202FB88
:103880000171000C0F0C02FB007089B201EB0041CA
:103890009D424FEA10474CF8041BECDCD7B1A368FB
:1038A000AB4212DC616830460131FFF790FF804681
:1038B000226904F10C01023292000C30FFF77CFF08
:1038C00021463046FFF7B7FF444604EB8503013538
:1038D0005F6125612046BDE8F081020C12040346B9
:1038E000B2B90304102013F07F4F04BF1B0208304D
:1038F00013F0704F04BF1B01043013F0404F04BF9E
:103900009B000230002B06DB5B0003D501307047C3
:103910000020E8E7202070470368014613F0070203
:103920000BD0DA0723D4980749BF5B089B08012016
:103930000B605CBF0B600220704798B2A8B91020E2
:103940001B0C13F0FF0F04BF1B0A08301A0704BF3B
:103950001B0904309A0704BF9B080230DA0702D41F
:103960005B0806D001300B6070471046E9E7002085
:1039700070472020704710B50C460121FFF727FF44
:1039800001224461026110BD2DE9F74F14460A6916
:10399000236988469A42BEBF0B46A0461C46D8F80B
:1039A0001070D4F81090D8F80830D8F8041007EB4D
:1039B0000906B342B8BF0131FFF709FF00F1140552
:1039C0002B46002205EB860E734516D304F1140234
:1039D00008F1140102EB890301EB87070093009BB8
:1039E000019293420CD8002E03DD5EF8043D002BBB
:1039F0005DD0066103B0BDE8F08F43F8042BE3E728
:103A0000B2F800B0BBF1000F23D08946AC464FF0AE
:103A1000000859F8044BDCF800A0A3B21FFA8AFA98
:103A20000BFB03A34FEA144ADCF8004043444FEA7F
:103A300014480BFB0A84E24604EB13449BB243EAAE
:103A400004434F454FEA14484AF8043B2BD8CCF8BE
:103A50000480019B0432B3F802A0BAF1000F20D019
:103A60008946A8464FF0000B2B68B9F800C0B8F89B
:103A700002409BB20AFB0C44C4465C4443EA044344
:103A80004CF8043B59F8043BB8F804B01B0C0AFB93
:103A900003B34F4503EB14434FEA134B05D8C8F863
:103AA000043004359BE7D446B3E7E046DDE7013E4A
:103AB00099E700002DE9F843154612F00302064687
:103AC0000F4607D0214C013A002354F82220FFF77B
:103AD000C9FE0746AD1035D0746A3CB91020FFF717
:103AE00051FE7062C0E901440460C460D6F82480CD
:103AF000D8F808404CB940F271213046FFF73BFF3F
:103B000000230446C8F8080003604FF00008EB07E4
:103B10000AD5394622463046FFF736FF81463946F8
:103B20003046FFF788FE4F466D100BD0206838B93D
:103B3000224621463046FFF727FF2060C0F800806C
:103B40000446E4E73846BDE8F88300BF304100088A
:103B50002DE9F0470C460746164623694FEA621ADC
:103B60000AEB03094968A36809F10105AB4232DB9E
:103B70003846FFF72CFE002380461A4600F1140158
:103B800053452BDB20692AEAEA7A04F1140316F084
:103B90001F0201EB8A0103EB800C25D00020C2F14B
:103BA000200E8A461E68964030434AF8040B53F8AC
:103BB000040B9C4520FA0EF014D8486008B109F1B6
:103BC0000205013D3846C8F810502146FFF733FE84
:103BD0004046BDE8F08701315B00C7E741F823208C
:103BE0000133CDE75146DCE7043953F8042B9C45FB
:103BF00041F8042FF9D8E4E703690A6930B59B1A44
:103C00000CD19200143014318418114454F8045D1E
:103C100051F8042D954203D005D30123184630BD39
:103C2000A042F3D3FAE74FF0FF33F7E72DE9F0476F
:103C30000D460746114628461446FFF7DDFF061ECF
:103C400008D131463846FFF7C2FD0123C0E90436EA
:103C5000BDE8F087A4BF23462C4638466168A6BF5E
:103C60001D4600260126FFF7B2FD4FF0000EC6608C
:103C70002B69266904F1140205F1140902EB860789
:103C800009EB830800F1140152F804AB59F8045B06
:103C90001FFA8AF37344ACB21B1B2C0CC4EB1A44FE
:103CA00004EB23449BB24FEA244EC84543EA044444
:103CB000944641F8044BE7D8BC4504D351F8043D81
:103CC00083B10661C4E75CF8044BA2B272441314DA
:103CD00003EB144392B242EA03424FEA234E41F807
:103CE000042BE9E7013EE9E72DE9F3411C46DDE954
:103CF000086501219046FFF76AFDC4F31302C4F37F
:103D00000A54074634BB0192B8F1000227D002A83A
:103D100040F8082DFFF700FE0099F0B1019AC0F1BC
:103D2000200302FA03F30B43C2407B610192019B23
:103D3000002B14BF02210121BB613961C4B1A4F27F
:103D4000334404443460C0F135002860384602B082
:103D5000BDE8F08142F48012D5E77961E7E701A878
:103D6000FFF7DAFD0121019B39617B612030E5E736
:103D7000A0F2324007EB810330601869FFF7ADFD18
:103D8000C0EB4110E1E738B502FB01F4214600F039
:103D900009F8054618B122460021FEF75BFB2846CC
:103DA00038BD000070B5CD1C25F0030508350C2D7D
:103DB00038BF0C25002D064601DBA94203D90C2390
:103DC0003360002070BD00F064F8214A1468214679
:103DD00091B9204C23681BB9304600F03DF82060B3
:103DE0002946304600F038F8431C24D10C233046D5
:103DF000336000F04FF8E4E70B685B1B18D40B2B23
:103E00000FD90B60CC18CD50304600F043F804F1C8
:103E10000B00231D20F00700C31AD3D05A42E250F2
:103E2000D0E74B688C4216BF636013600C46EBE72B
:103E30000C464968CCE7C41C24F00304A04205D01A
:103E4000211A304600F008F80130CFD02560DBE7BA
:103E5000FC0100200002002038B50023054C054677
:103E60000846236000F018F8431C02D1236803B110
:103E70002B6038BD0006002049B1FF2A8BBF8A2382
:103E80000A700360012088BF4FF0FF30704708467A
:103E90007047704770470000044A05491368002BBB
:103EA00008BF0B46184410601846704704020020F3
:103EB00008060020F8B500BFF8BC08BC9E46704755
:0C3EC000F8B500BFF8BC08BC9E46704777
:103ED00002030405060708090A0B0C0D0E0F10104B
:103EE00001020000000000000000000001020304C5
:103EF000060708090000000001020304486F7572FC
:103F00003A202564094D696E757465733A202564FD
:103F1000095365636F6E64733A202564094D696CBB
:103F20006C697365636F6E64733A20256409596523
:103F300061723A202564094D6F6E74683A202564D9
:103F4000094461793A202564094C61746974756487
:103F5000653A202563094C6F6E6769747564653A2C
:103F6000202563094C617469747564652056616C21
:103F70006F723A20256C6609204C6F6E6769747504
:103F800064652056616C6F723A20256C660A0000E9
:103F90002E2E2F5372632F6D61696E2E6300000009
:103FA00024504D544B3331342C302C312C302C30A8
:103FB0002C302C302C302C302C302C302C302C3021
:103FC0002C302C302C302C302C302C302C302A3211
:103FD0003900000024504D544B3232302C313030F7
:103FE0002A324600245047434D442C33332C312A87
:103FF000364300002E2E2F5372632F73746D3332AD
:10400000663178785F68616C5F6D73702E63000055
:10401000494E4600696E66004E414E006E616E006C
:104020003000496E66696E697479004E614E0043D6
:1040300000504F534958002E0000000000000000BF
:104040000080E03779C34143176E05B5B5B8934694
:10405000F5F93FE9034F384D321D30F94877825A60
:104060003CBF737FDD4F1575000000000000F03F7E
:104070000000000000002440000000000000594043
:104080000000000000408F40000000000088C34096
:1040900000000000006AF8400000000080842E410B
:1040A00000000000D01263410000000084D7974157
:1040B0000000000065CDCD41000000205FA002425D
:1040C000000000E876483742000000A2941A6D42D2
:1040D000000040E59C30A2420000901EC4BCD642C5
:1040E00000003426F56B0C430080E03779C3414370
:1040F00000A0D8855734764300C84E676DC1AB43E6
:10410000003D9160E458E143408CB5781DAF154403
:1041100050EFE2D6E41A4B4492D54D06CFF08044DE
:10412000F64AE1C7022DB544B49DD9794378EA44F3
:1041300005000000190000007D0000000020202084
:104140002020202020202828282828202020202047
:104150002020202020202020202020202088101017
:104160001010101010101010101010101004040473
:104170000404040404040410101010101010414131
:10418000414141410101010101010101010101011F
:104190000101010101010101101010101010424233
:1041A00042424242020202020202020202020202EF
:1041B000020202020202020210101010200000008F
:1041C00000000000000000000000000000000000EF
:1041D00000000000000000000000000000000000DF
:1041E00000000000000000000000000000000000CF
:1041F00000000000000000000000000000000000BF
:1042000000000000000000000000000000000000AE
:10421000000000000000000000000000000000009E
:10422000000000000000000000000000000000008E
:10423000000000000000000000000000000000007E
:04424000350100083C
:04424400110100085C
:10424800010000001000000000A24A041000002035
:104258000000000000000000000000000000000056
:104268000000000000000000000000000000000046
:104278000000000000000000000000000000000036
:104288000000000000000000000000000000000026
:104298000000000000000000000000000000000016
:1042A8000000000000000000000000000000000006
:1042B80043000000000000000000000000000000B3
:1042C80000000000000000000000000000000000E6
:1042D8004300000000000000000000000000000093
:1042E80000000000000000000000000000000000C6
:1042F8004300000000000000000000000000000073
:1043080000000000000000000000000000000000A5
:104318004300000000000000000000000000000052
:104328000000000000000000000000000000000085
:104338004300000000000000000000000000000032
:104348000000000000000000000000000000000065
:104358004300000000000000000000000000000012
:104368000000000000000000000000000000000045
:1043780043000000000000000000000000000000F2
:104388000000000000000000000000000000000025
:10439800793E000895370008000000003C410008FD
:1043A8003740000838400008384000083840000806
:1043B80038400008384000083840000838400008F5
:1043C8003840000838400008FFFFFFFFFFFFFFFFED
:1043D800FFFFFFFFFFFF0000010041534349490071
:1043E80000000000000000000000000000000000C5
:1043F800000000000000000000004153434949004C
:1044080000000000000000000000000000000000A4
:0C44180000000000000000000000000098
:04000005080023C10B
:00000001FF
